:100000000C9434000C9451000C9451000C94510049
:100010000C9451000C9451000C9451000C9451001C
:100020000C9451000C9451000C9451000C9451000C
:100030000C9451000C9451000C9451000C945100FC
:100040000C9451000C9453000C9451000C945100EA
:100050000C9451000C9451000C9451000C945100DC
:100060000C9451000C94510011241FBECFEFD8E026
:10007000DEBFCDBF11E0A0E0B1E0E4EAF2E002C0F3
:1000800005900D92A035B107D9F721E0A0E5B1E0C8
:1000900001C01D92A135B207E1F70E9429010C941D
:1000A00050010C9400008F938FB78F939F9385B16D
:1000B00092E0892785B981E0809350019F918F91CB
:1000C0008FBF8F9118958CE284B980ED8CBD81E053
:1000D0008DBD08958EBD809150018115E1F3109280
:1000E000500108950F931F93CF938C01C1E02A987C
:1000F000F801C0838C2F0E946A00F801108280E012
:100100000E946A002A9ACF5FC93089F7CF911F9168
:100110000F910895CF93DF93EC012A988AE08883AA
:100120000E946A0083E088830E946A002A9ADF9115
:10013000CF910895CF93DF93EC012A9889E08883CB
:100140000E946A00188280E00E946A002A9ADF9169
:10015000CF910895CF93DF93EC012A988CE08883A8
:100160000E946A0081E088830E946A002A9ADF91D7
:10017000CF910895CF93DF93EC012A988BE0888389
:100180000E946A0087E088830E946A002A9ADF91B1
:10019000CF910895EF92FF921F93CF93DF937C014D
:1001A00011E0C0E0D0E02A98F7011083812F0E946F
:1001B0006A008C2FF701C0830E946A002A9AEFE937
:1001C000FFE03197F1F700C000002196C115F1E082
:1001D000DF0749F71F5F193021F7DF91CF911F919A
:1001E000FF90EF900895CF92DF92EF92FF920F93DE
:1001F0001F93CF936C0100E011E07801C1E02A98D1
:10020000F601C0838C2F0E946A00F7018081F2E022
:10021000EF0EF11CF60180830E946A002A9ACF5FDC
:10022000C93069F7FFEF23ED80E3F15020408040B3
:10023000E1F700C00000005F1F4F91E00032190796
:10024000E1F6CF911F910F91FF90EF90DF90CF904B
:1002500008950F92CDB7DEB778940E946300219A7B
:10026000CE0101960E947200CE0101960E948A0082
:10027000CE0101960E949A00CE0101960E94AA002A
:10028000CE0101960E94BA00CE0101960E94720032
:10029000CE0101960E94F30080E090E00F90089557
:0402A000F894FFCF00
:1002A400000042001800180042002400180000005A
:1002B4000000120020004C004C002000120000003E
:1002C400000000000000000000000000000000002A
:1002D400000000000000000000000000000000001A
:1002E400000042001800180042002400180000001A
:00000001FF
