:100000000C9434000C9449000C9449000C94490061
:100010000C9449000C9449000C9449000C9449003C
:100020000C9449000C9449000C9449000C9449002C
:100030000C9449000C9449000C9449000C9449001C
:100040000C9449000C9449000C9449000C9449000C
:100050000C9449000C9449000C9449000C944900FC
:100060000C9449000C94490011241FBECFEFD8E036
:10007000DEBFCDBF11E0A0E0B1E0E8EBF1E002C0EF
:1000800005900D92A632B107D9F70E949C000C94FE
:10009000DA000C9400001092C50088E08093C40040
:1000A00088E18093C10086E08093C200089590911A
:1000B000C00095FFFCCF8093C60008958091C000DA
:1000C00087FFFCCF8091C6000895CF93DF93EC01AA
:1000D0008991811103C0DF91CF910895082E000C02
:1000E000990B0E945700F4CF0F931F93CF938C016D
:1000F0008091C00087FF04C080E091E00E9465000D
:10010000C0E08091C00087FD13C00E945E00F8012E
:10011000EC0FF11D8A3059F08083CF5F8091C000D1
:1001200087FFEFCF8DE091E00E946500EACF10825B
:10013000CF911F910F910895CDB7DEB7C456D10965
:100140000FB6F894DEBF0FBECDBF0E944B0084E116
:1001500091E00E946500FE01319684E6DF011D9268
:100160008A95E9F78F018BE191E00E946500BAEA78
:1001700026EE36E981E0B150204030408040D9F78A
:10018000000083E291E00E946500C8010E947400B3
:100190008DE191E00E946500C8010E9465009AEA25
:1001A000A6EEB6E921E09150A040B0402040D9F73A
:0801B0000000D9CFF894FFCF45
:1001B800696E2072656365697665720A0073657495
:1001C8002072780068656C6C6F0A003E0065636891
:0601D8006F3A200A00004E
:00000001FF
